{
  "_format": "hh-sol-artifact-1",
  "contractName": "smartContractMint",
  "sourceName": "contracts/smartContractMint.sol",
  "abi": [
    {
      "inputs": [],
      "stateMutability": "nonpayable",
      "type": "constructor"
    },
    {
      "anonymous": false,
      "inputs": [
        {
          "indexed": true,
          "internalType": "address",
          "name": "owner",
          "type": "address"
        },
        {
          "indexed": true,
          "internalType": "address",
          "name": "approved",
          "type": "address"
        },
        {
          "indexed": true,
          "internalType": "uint256",
          "name": "tokenId",
          "type": "uint256"
        }
      ],
      "name": "Approval",
      "type": "event"
    },
    {
      "anonymous": false,
      "inputs": [
        {
          "indexed": true,
          "internalType": "address",
          "name": "owner",
          "type": "address"
        },
        {
          "indexed": true,
          "internalType": "address",
          "name": "operator",
          "type": "address"
        },
        {
          "indexed": false,
          "internalType": "bool",
          "name": "approved",
          "type": "bool"
        }
      ],
      "name": "ApprovalForAll",
      "type": "event"
    },
    {
      "anonymous": false,
      "inputs": [
        {
          "indexed": true,
          "internalType": "address",
          "name": "from",
          "type": "address"
        },
        {
          "indexed": true,
          "internalType": "address",
          "name": "to",
          "type": "address"
        },
        {
          "indexed": true,
          "internalType": "uint256",
          "name": "tokenId",
          "type": "uint256"
        }
      ],
      "name": "Transfer",
      "type": "event"
    },
    {
      "inputs": [
        {
          "internalType": "address",
          "name": "to",
          "type": "address"
        },
        {
          "internalType": "uint256",
          "name": "tokenId",
          "type": "uint256"
        }
      ],
      "name": "approve",
      "outputs": [],
      "stateMutability": "nonpayable",
      "type": "function"
    },
    {
      "inputs": [
        {
          "internalType": "address",
          "name": "owner",
          "type": "address"
        }
      ],
      "name": "balanceOf",
      "outputs": [
        {
          "internalType": "uint256",
          "name": "",
          "type": "uint256"
        }
      ],
      "stateMutability": "view",
      "type": "function"
    },
    {
      "inputs": [
        {
          "internalType": "uint256",
          "name": "tokenId",
          "type": "uint256"
        }
      ],
      "name": "getApproved",
      "outputs": [
        {
          "internalType": "address",
          "name": "",
          "type": "address"
        }
      ],
      "stateMutability": "view",
      "type": "function"
    },
    {
      "inputs": [
        {
          "internalType": "address",
          "name": "owner",
          "type": "address"
        },
        {
          "internalType": "address",
          "name": "operator",
          "type": "address"
        }
      ],
      "name": "isApprovedForAll",
      "outputs": [
        {
          "internalType": "bool",
          "name": "",
          "type": "bool"
        }
      ],
      "stateMutability": "view",
      "type": "function"
    },
    {
      "inputs": [
        {
          "internalType": "address",
          "name": "owner",
          "type": "address"
        },
        {
          "internalType": "string",
          "name": "metadataURI",
          "type": "string"
        }
      ],
      "name": "mintToken",
      "outputs": [
        {
          "internalType": "uint256",
          "name": "",
          "type": "uint256"
        }
      ],
      "stateMutability": "nonpayable",
      "type": "function"
    },
    {
      "inputs": [],
      "name": "name",
      "outputs": [
        {
          "internalType": "string",
          "name": "",
          "type": "string"
        }
      ],
      "stateMutability": "view",
      "type": "function"
    },
    {
      "inputs": [
        {
          "internalType": "uint256",
          "name": "tokenId",
          "type": "uint256"
        }
      ],
      "name": "ownerOf",
      "outputs": [
        {
          "internalType": "address",
          "name": "",
          "type": "address"
        }
      ],
      "stateMutability": "view",
      "type": "function"
    },
    {
      "inputs": [
        {
          "internalType": "address",
          "name": "from",
          "type": "address"
        },
        {
          "internalType": "address",
          "name": "to",
          "type": "address"
        },
        {
          "internalType": "uint256",
          "name": "tokenId",
          "type": "uint256"
        }
      ],
      "name": "safeTransferFrom",
      "outputs": [],
      "stateMutability": "nonpayable",
      "type": "function"
    },
    {
      "inputs": [
        {
          "internalType": "address",
          "name": "from",
          "type": "address"
        },
        {
          "internalType": "address",
          "name": "to",
          "type": "address"
        },
        {
          "internalType": "uint256",
          "name": "tokenId",
          "type": "uint256"
        },
        {
          "internalType": "bytes",
          "name": "_data",
          "type": "bytes"
        }
      ],
      "name": "safeTransferFrom",
      "outputs": [],
      "stateMutability": "nonpayable",
      "type": "function"
    },
    {
      "inputs": [
        {
          "internalType": "address",
          "name": "operator",
          "type": "address"
        },
        {
          "internalType": "bool",
          "name": "approved",
          "type": "bool"
        }
      ],
      "name": "setApprovalForAll",
      "outputs": [],
      "stateMutability": "nonpayable",
      "type": "function"
    },
    {
      "inputs": [
        {
          "internalType": "bytes4",
          "name": "interfaceId",
          "type": "bytes4"
        }
      ],
      "name": "supportsInterface",
      "outputs": [
        {
          "internalType": "bool",
          "name": "",
          "type": "bool"
        }
      ],
      "stateMutability": "view",
      "type": "function"
    },
    {
      "inputs": [],
      "name": "symbol",
      "outputs": [
        {
          "internalType": "string",
          "name": "",
          "type": "string"
        }
      ],
      "stateMutability": "view",
      "type": "function"
    },
    {
      "inputs": [
        {
          "internalType": "uint256",
          "name": "tokenId",
          "type": "uint256"
        }
      ],
      "name": "tokenURI",
      "outputs": [
        {
          "internalType": "string",
          "name": "",
          "type": "string"
        }
      ],
      "stateMutability": "view",
      "type": "function"
    },
    {
      "inputs": [
        {
          "internalType": "address",
          "name": "from",
          "type": "address"
        },
        {
          "internalType": "address",
          "name": "to",
          "type": "address"
        },
        {
          "internalType": "uint256",
          "name": "tokenId",
          "type": "uint256"
        }
      ],
      "name": "transferFrom",
      "outputs": [],
      "stateMutability": "nonpayable",
      "type": "function"
    }
  ],
  "bytecode": "0x60806040523480156200001157600080fd5b506040518060400160405280600e81526020017f4564734e465468746d6c486f6c6f0000000000000000000000000000000000008152506040518060400160405280600e81526020017f4544534e465448544d4c484f4c4f000000000000000000000000000000000000815250816000908051906020019062000096929190620000b8565b508060019080519060200190620000af929190620000b8565b505050620001cd565b828054620000c69062000168565b90600052602060002090601f016020900481019282620000ea576000855562000136565b82601f106200010557805160ff191683800117855562000136565b8280016001018555821562000136579182015b828111156200013557825182559160200191906001019062000118565b5b50905062000145919062000149565b5090565b5b80821115620001645760008160009055506001016200014a565b5090565b600060028204905060018216806200018157607f821691505b602082108114156200019857620001976200019e565b5b50919050565b7f4e487b7100000000000000000000000000000000000000000000000000000000600052602260045260246000fd5b612c1c80620001dd6000396000f3fe608060405234801561001057600080fd5b50600436106100ea5760003560e01c80636352211e1161008c578063a22cb46511610066578063a22cb4651461026f578063b88d4fde1461028b578063c87b56dd146102a7578063e985e9c5146102d7576100ea565b80636352211e146101f157806370a082311461022157806395d89b4114610251576100ea565b8063095ea7b3116100c8578063095ea7b31461016d57806323b872dd146101895780633d02d0c9146101a557806342842e0e146101d5576100ea565b806301ffc9a7146100ef57806306fdde031461011f578063081812fc1461013d575b600080fd5b61010960048036038101906101049190611c7a565b610307565b604051610116919061208c565b60405180910390f35b6101276103e9565b60405161013491906120a7565b60405180910390f35b61015760048036038101906101529190611cd4565b61047b565b6040516101649190612025565b60405180910390f35b61018760048036038101906101829190611c3a565b610500565b005b6101a3600480360381019061019e9190611ac8565b610618565b005b6101bf60048036038101906101ba9190611bde565b610678565b6040516101cc91906122c9565b60405180910390f35b6101ef60048036038101906101ea9190611ac8565b6106b0565b005b61020b60048036038101906102069190611cd4565b6106d0565b6040516102189190612025565b60405180910390f35b61023b60048036038101906102369190611a5b565b610782565b60405161024891906122c9565b60405180910390f35b61025961083a565b60405161026691906120a7565b60405180910390f35b61028960048036038101906102849190611b9e565b6108cc565b005b6102a560048036038101906102a09190611b1b565b610a4d565b005b6102c160048036038101906102bc9190611cd4565b610aaf565b6040516102ce91906120a7565b60405180910390f35b6102f160048036038101906102ec9190611a88565b610c01565b6040516102fe919061208c565b60405180910390f35b60007f80ac58cd000000000000000000000000000000000000000000000000000000007bffffffffffffffffffffffffffffffffffffffffffffffffffffffff1916827bffffffffffffffffffffffffffffffffffffffffffffffffffffffff191614806103d257507f5b5e139f000000000000000000000000000000000000000000000000000000007bffffffffffffffffffffffffffffffffffffffffffffffffffffffff1916827bffffffffffffffffffffffffffffffffffffffffffffffffffffffff1916145b806103e257506103e182610c95565b5b9050919050565b6060600080546103f89061251f565b80601f01602080910402602001604051908101604052809291908181526020018280546104249061251f565b80156104715780601f1061044657610100808354040283529160200191610471565b820191906000526020600020905b81548152906001019060200180831161045457829003601f168201915b5050505050905090565b600061048682610cff565b6104c5576040517f08c379a00000000000000000000000000000000000000000000000000000000081526004016104bc90612229565b60405180910390fd5b6004600083815260200190815260200160002060009054906101000a900473ffffffffffffffffffffffffffffffffffffffff169050919050565b600061050b826106d0565b90508073ffffffffffffffffffffffffffffffffffffffff168373ffffffffffffffffffffffffffffffffffffffff16141561057c576040517f08c379a000000000000000000000000000000000000000000000000000000000815260040161057390612289565b60405180910390fd5b8073ffffffffffffffffffffffffffffffffffffffff1661059b610d6b565b73ffffffffffffffffffffffffffffffffffffffff1614806105ca57506105c9816105c4610d6b565b610c01565b5b610609576040517f08c379a000000000000000000000000000000000000000000000000000000000815260040161060090612169565b60405180910390fd5b6106138383610d73565b505050565b610629610623610d6b565b82610e2c565b610668576040517f08c379a000000000000000000000000000000000000000000000000000000000815260040161065f906122a9565b60405180910390fd5b610673838383610f0a565b505050565b60006106846007611166565b6000610690600761117c565b905061069c848261118a565b6106a681846111a8565b8091505092915050565b6106cb83838360405180602001604052806000815250610a4d565b505050565b6000806002600084815260200190815260200160002060009054906101000a900473ffffffffffffffffffffffffffffffffffffffff169050600073ffffffffffffffffffffffffffffffffffffffff168173ffffffffffffffffffffffffffffffffffffffff161415610779576040517f08c379a0000000000000000000000000000000000000000000000000000000008152600401610770906121a9565b60405180910390fd5b80915050919050565b60008073ffffffffffffffffffffffffffffffffffffffff168273ffffffffffffffffffffffffffffffffffffffff1614156107f3576040517f08c379a00000000000000000000000000000000000000000000000000000000081526004016107ea90612189565b60405180910390fd5b600360008373ffffffffffffffffffffffffffffffffffffffff1673ffffffffffffffffffffffffffffffffffffffff168152602001908152602001600020549050919050565b6060600180546108499061251f565b80601f01602080910402602001604051908101604052809291908181526020018280546108759061251f565b80156108c25780601f10610897576101008083540402835291602001916108c2565b820191906000526020600020905b8154815290600101906020018083116108a557829003601f168201915b5050505050905090565b6108d4610d6b565b73ffffffffffffffffffffffffffffffffffffffff168273ffffffffffffffffffffffffffffffffffffffff161415610942576040517f08c379a000000000000000000000000000000000000000000000000000000000815260040161093990612129565b60405180910390fd5b806005600061094f610d6b565b73ffffffffffffffffffffffffffffffffffffffff1673ffffffffffffffffffffffffffffffffffffffff16815260200190815260200160002060008473ffffffffffffffffffffffffffffffffffffffff1673ffffffffffffffffffffffffffffffffffffffff16815260200190815260200160002060006101000a81548160ff0219169083151502179055508173ffffffffffffffffffffffffffffffffffffffff166109fc610d6b565b73ffffffffffffffffffffffffffffffffffffffff167f17307eab39ab6107e8899845ad3d59bd9653f200f220920489ca2b5937696c3183604051610a41919061208c565b60405180910390a35050565b610a5e610a58610d6b565b83610e2c565b610a9d576040517f08c379a0000000000000000000000000000000000000000000000000000000008152600401610a94906122a9565b60405180910390fd5b610aa98484848461121c565b50505050565b6060610aba82610cff565b610af9576040517f08c379a0000000000000000000000000000000000000000000000000000000008152600401610af090612209565b60405180910390fd5b6000600660008481526020019081526020016000208054610b199061251f565b80601f0160208091040260200160405190810160405280929190818152602001828054610b459061251f565b8015610b925780601f10610b6757610100808354040283529160200191610b92565b820191906000526020600020905b815481529060010190602001808311610b7557829003601f168201915b505050505090506000610ba3611278565b9050600081511415610bb9578192505050610bfc565b600082511115610bee578082604051602001610bd6929190612001565b60405160208183030381529060405292505050610bfc565b610bf78461128f565b925050505b919050565b6000600560008473ffffffffffffffffffffffffffffffffffffffff1673ffffffffffffffffffffffffffffffffffffffff16815260200190815260200160002060008373ffffffffffffffffffffffffffffffffffffffff1673ffffffffffffffffffffffffffffffffffffffff16815260200190815260200160002060009054906101000a900460ff16905092915050565b60007f01ffc9a7000000000000000000000000000000000000000000000000000000007bffffffffffffffffffffffffffffffffffffffffffffffffffffffff1916827bffffffffffffffffffffffffffffffffffffffffffffffffffffffff1916149050919050565b60008073ffffffffffffffffffffffffffffffffffffffff166002600084815260200190815260200160002060009054906101000a900473ffffffffffffffffffffffffffffffffffffffff1673ffffffffffffffffffffffffffffffffffffffff1614159050919050565b600033905090565b816004600083815260200190815260200160002060006101000a81548173ffffffffffffffffffffffffffffffffffffffff021916908373ffffffffffffffffffffffffffffffffffffffff160217905550808273ffffffffffffffffffffffffffffffffffffffff16610de6836106d0565b73ffffffffffffffffffffffffffffffffffffffff167f8c5be1e5ebec7d5bd14f71427d1e84f3dd0314c0f7b2291e5b200ac8c7c3b92560405160405180910390a45050565b6000610e3782610cff565b610e76576040517f08c379a0000000000000000000000000000000000000000000000000000000008152600401610e6d90612149565b60405180910390fd5b6000610e81836106d0565b90508073ffffffffffffffffffffffffffffffffffffffff168473ffffffffffffffffffffffffffffffffffffffff161480610ef057508373ffffffffffffffffffffffffffffffffffffffff16610ed88461047b565b73ffffffffffffffffffffffffffffffffffffffff16145b80610f015750610f008185610c01565b5b91505092915050565b8273ffffffffffffffffffffffffffffffffffffffff16610f2a826106d0565b73ffffffffffffffffffffffffffffffffffffffff1614610f80576040517f08c379a0000000000000000000000000000000000000000000000000000000008152600401610f7790612249565b60405180910390fd5b600073ffffffffffffffffffffffffffffffffffffffff168273ffffffffffffffffffffffffffffffffffffffff161415610ff0576040517f08c379a0000000000000000000000000000000000000000000000000000000008152600401610fe790612109565b60405180910390fd5b610ffb838383611336565b611006600082610d73565b6001600360008573ffffffffffffffffffffffffffffffffffffffff1673ffffffffffffffffffffffffffffffffffffffff16815260200190815260200160002060008282546110569190612435565b925050819055506001600360008473ffffffffffffffffffffffffffffffffffffffff1673ffffffffffffffffffffffffffffffffffffffff16815260200190815260200160002060008282546110ad91906123ae565b92505081905550816002600083815260200190815260200160002060006101000a81548173ffffffffffffffffffffffffffffffffffffffff021916908373ffffffffffffffffffffffffffffffffffffffff160217905550808273ffffffffffffffffffffffffffffffffffffffff168473ffffffffffffffffffffffffffffffffffffffff167fddf252ad1be2c89b69c2b068fc378daa952ba7f163c4a11628f55a4df523b3ef60405160405180910390a4505050565b6001816000016000828254019250508190555050565b600081600001549050919050565b6111a482826040518060200160405280600081525061133b565b5050565b6111b182610cff565b6111f0576040517f08c379a00000000000000000000000000000000000000000000000000000000081526004016111e7906121c9565b60405180910390fd5b8060066000848152602001908152602001600020908051906020019061121792919061186f565b505050565b611227848484610f0a565b61123384848484611396565b611272576040517f08c379a0000000000000000000000000000000000000000000000000000000008152600401611269906120c9565b60405180910390fd5b50505050565b606060405180602001604052806000815250905090565b606061129a82610cff565b6112d9576040517f08c379a00000000000000000000000000000000000000000000000000000000081526004016112d090612269565b60405180910390fd5b60006112e3611278565b90506000815111611303576040518060200160405280600081525061132e565b8061130d8461152d565b60405160200161131e929190612001565b6040516020818303038152906040525b915050919050565b505050565b611345838361168e565b6113526000848484611396565b611391576040517f08c379a0000000000000000000000000000000000000000000000000000000008152600401611388906120c9565b60405180910390fd5b505050565b60006113b78473ffffffffffffffffffffffffffffffffffffffff1661185c565b15611520578373ffffffffffffffffffffffffffffffffffffffff1663150b7a026113e0610d6b565b8786866040518563ffffffff1660e01b81526004016114029493929190612040565b602060405180830381600087803b15801561141c57600080fd5b505af192505050801561144d57506040513d601f19601f8201168201806040525081019061144a9190611ca7565b60015b6114d0573d806000811461147d576040519150601f19603f3d011682016040523d82523d6000602084013e611482565b606091505b506000815114156114c8576040517f08c379a00000000000000000000000000000000000000000000000000000000081526004016114bf906120c9565b60405180910390fd5b805181602001fd5b63150b7a0260e01b7bffffffffffffffffffffffffffffffffffffffffffffffffffffffff1916817bffffffffffffffffffffffffffffffffffffffffffffffffffffffff191614915050611525565b600190505b949350505050565b60606000821415611575576040518060400160405280600181526020017f30000000000000000000000000000000000000000000000000000000000000008152509050611689565b600082905060005b600082146115a757808061159090612582565b915050600a826115a09190612404565b915061157d565b60008167ffffffffffffffff8111156115c3576115c26126b8565b5b6040519080825280601f01601f1916602001820160405280156115f55781602001600182028036833780820191505090505b5090505b600085146116825760018261160e9190612435565b9150600a8561161d91906125cb565b603061162991906123ae565b60f81b81838151811061163f5761163e612689565b5b60200101907effffffffffffffffffffffffffffffffffffffffffffffffffffffffffffff1916908160001a905350600a8561167b9190612404565b94506115f9565b8093505050505b919050565b600073ffffffffffffffffffffffffffffffffffffffff168273ffffffffffffffffffffffffffffffffffffffff1614156116fe576040517f08c379a00000000000000000000000000000000000000000000000000000000081526004016116f5906121e9565b60405180910390fd5b61170781610cff565b15611747576040517f08c379a000000000000000000000000000000000000000000000000000000000815260040161173e906120e9565b60405180910390fd5b61175360008383611336565b6001600360008473ffffffffffffffffffffffffffffffffffffffff1673ffffffffffffffffffffffffffffffffffffffff16815260200190815260200160002060008282546117a391906123ae565b92505081905550816002600083815260200190815260200160002060006101000a81548173ffffffffffffffffffffffffffffffffffffffff021916908373ffffffffffffffffffffffffffffffffffffffff160217905550808273ffffffffffffffffffffffffffffffffffffffff16600073ffffffffffffffffffffffffffffffffffffffff167fddf252ad1be2c89b69c2b068fc378daa952ba7f163c4a11628f55a4df523b3ef60405160405180910390a45050565b600080823b905060008111915050919050565b82805461187b9061251f565b90600052602060002090601f01602090048101928261189d57600085556118e4565b82601f106118b657805160ff19168380011785556118e4565b828001600101855582156118e4579182015b828111156118e35782518255916020019190600101906118c8565b5b5090506118f191906118f5565b5090565b5b8082111561190e5760008160009055506001016118f6565b5090565b600061192561192084612309565b6122e4565b905082815260208101848484011115611941576119406126ec565b5b61194c8482856124dd565b509392505050565b60006119676119628461233a565b6122e4565b905082815260208101848484011115611983576119826126ec565b5b61198e8482856124dd565b509392505050565b6000813590506119a581612b8a565b92915050565b6000813590506119ba81612ba1565b92915050565b6000813590506119cf81612bb8565b92915050565b6000815190506119e481612bb8565b92915050565b600082601f8301126119ff576119fe6126e7565b5b8135611a0f848260208601611912565b91505092915050565b600082601f830112611a2d57611a2c6126e7565b5b8135611a3d848260208601611954565b91505092915050565b600081359050611a5581612bcf565b92915050565b600060208284031215611a7157611a706126f6565b5b6000611a7f84828501611996565b91505092915050565b60008060408385031215611a9f57611a9e6126f6565b5b6000611aad85828601611996565b9250506020611abe85828601611996565b9150509250929050565b600080600060608486031215611ae157611ae06126f6565b5b6000611aef86828701611996565b9350506020611b0086828701611996565b9250506040611b1186828701611a46565b9150509250925092565b60008060008060808587031215611b3557611b346126f6565b5b6000611b4387828801611996565b9450506020611b5487828801611996565b9350506040611b6587828801611a46565b925050606085013567ffffffffffffffff811115611b8657611b856126f1565b5b611b92878288016119ea565b91505092959194509250565b60008060408385031215611bb557611bb46126f6565b5b6000611bc385828601611996565b9250506020611bd4858286016119ab565b9150509250929050565b60008060408385031215611bf557611bf46126f6565b5b6000611c0385828601611996565b925050602083013567ffffffffffffffff811115611c2457611c236126f1565b5b611c3085828601611a18565b9150509250929050565b60008060408385031215611c5157611c506126f6565b5b6000611c5f85828601611996565b9250506020611c7085828601611a46565b9150509250929050565b600060208284031215611c9057611c8f6126f6565b5b6000611c9e848285016119c0565b91505092915050565b600060208284031215611cbd57611cbc6126f6565b5b6000611ccb848285016119d5565b91505092915050565b600060208284031215611cea57611ce96126f6565b5b6000611cf884828501611a46565b91505092915050565b611d0a81612469565b82525050565b611d198161247b565b82525050565b6000611d2a8261236b565b611d348185612381565b9350611d448185602086016124ec565b611d4d816126fb565b840191505092915050565b6000611d6382612376565b611d6d8185612392565b9350611d7d8185602086016124ec565b611d86816126fb565b840191505092915050565b6000611d9c82612376565b611da681856123a3565b9350611db68185602086016124ec565b80840191505092915050565b6000611dcf603283612392565b9150611dda8261270c565b604082019050919050565b6000611df2601c83612392565b9150611dfd8261275b565b602082019050919050565b6000611e15602483612392565b9150611e2082612784565b604082019050919050565b6000611e38601983612392565b9150611e43826127d3565b602082019050919050565b6000611e5b602c83612392565b9150611e66826127fc565b604082019050919050565b6000611e7e603883612392565b9150611e898261284b565b604082019050919050565b6000611ea1602a83612392565b9150611eac8261289a565b604082019050919050565b6000611ec4602983612392565b9150611ecf826128e9565b604082019050919050565b6000611ee7602e83612392565b9150611ef282612938565b604082019050919050565b6000611f0a602083612392565b9150611f1582612987565b602082019050919050565b6000611f2d603183612392565b9150611f38826129b0565b604082019050919050565b6000611f50602c83612392565b9150611f5b826129ff565b604082019050919050565b6000611f73602983612392565b9150611f7e82612a4e565b604082019050919050565b6000611f96602f83612392565b9150611fa182612a9d565b604082019050919050565b6000611fb9602183612392565b9150611fc482612aec565b604082019050919050565b6000611fdc603183612392565b9150611fe782612b3b565b604082019050919050565b611ffb816124d3565b82525050565b600061200d8285611d91565b91506120198284611d91565b91508190509392505050565b600060208201905061203a6000830184611d01565b92915050565b60006080820190506120556000830187611d01565b6120626020830186611d01565b61206f6040830185611ff2565b81810360608301526120818184611d1f565b905095945050505050565b60006020820190506120a16000830184611d10565b92915050565b600060208201905081810360008301526120c18184611d58565b905092915050565b600060208201905081810360008301526120e281611dc2565b9050919050565b6000602082019050818103600083015261210281611de5565b9050919050565b6000602082019050818103600083015261212281611e08565b9050919050565b6000602082019050818103600083015261214281611e2b565b9050919050565b6000602082019050818103600083015261216281611e4e565b9050919050565b6000602082019050818103600083015261218281611e71565b9050919050565b600060208201905081810360008301526121a281611e94565b9050919050565b600060208201905081810360008301526121c281611eb7565b9050919050565b600060208201905081810360008301526121e281611eda565b9050919050565b6000602082019050818103600083015261220281611efd565b9050919050565b6000602082019050818103600083015261222281611f20565b9050919050565b6000602082019050818103600083015261224281611f43565b9050919050565b6000602082019050818103600083015261226281611f66565b9050919050565b6000602082019050818103600083015261228281611f89565b9050919050565b600060208201905081810360008301526122a281611fac565b9050919050565b600060208201905081810360008301526122c281611fcf565b9050919050565b60006020820190506122de6000830184611ff2565b92915050565b60006122ee6122ff565b90506122fa8282612551565b919050565b6000604051905090565b600067ffffffffffffffff821115612324576123236126b8565b5b61232d826126fb565b9050602081019050919050565b600067ffffffffffffffff821115612355576123546126b8565b5b61235e826126fb565b9050602081019050919050565b600081519050919050565b600081519050919050565b600082825260208201905092915050565b600082825260208201905092915050565b600081905092915050565b60006123b9826124d3565b91506123c4836124d3565b9250827fffffffffffffffffffffffffffffffffffffffffffffffffffffffffffffffff038211156123f9576123f86125fc565b5b828201905092915050565b600061240f826124d3565b915061241a836124d3565b92508261242a5761242961262b565b5b828204905092915050565b6000612440826124d3565b915061244b836124d3565b92508282101561245e5761245d6125fc565b5b828203905092915050565b6000612474826124b3565b9050919050565b60008115159050919050565b60007fffffffff0000000000000000000000000000000000000000000000000000000082169050919050565b600073ffffffffffffffffffffffffffffffffffffffff82169050919050565b6000819050919050565b82818337600083830152505050565b60005b8381101561250a5780820151818401526020810190506124ef565b83811115612519576000848401525b50505050565b6000600282049050600182168061253757607f821691505b6020821081141561254b5761254a61265a565b5b50919050565b61255a826126fb565b810181811067ffffffffffffffff82111715612579576125786126b8565b5b80604052505050565b600061258d826124d3565b91507fffffffffffffffffffffffffffffffffffffffffffffffffffffffffffffffff8214156125c0576125bf6125fc565b5b600182019050919050565b60006125d6826124d3565b91506125e1836124d3565b9250826125f1576125f061262b565b5b828206905092915050565b7f4e487b7100000000000000000000000000000000000000000000000000000000600052601160045260246000fd5b7f4e487b7100000000000000000000000000000000000000000000000000000000600052601260045260246000fd5b7f4e487b7100000000000000000000000000000000000000000000000000000000600052602260045260246000fd5b7f4e487b7100000000000000000000000000000000000000000000000000000000600052603260045260246000fd5b7f4e487b7100000000000000000000000000000000000000000000000000000000600052604160045260246000fd5b600080fd5b600080fd5b600080fd5b600080fd5b6000601f19601f8301169050919050565b7f4552433732313a207472616e7366657220746f206e6f6e20455243373231526560008201527f63656976657220696d706c656d656e7465720000000000000000000000000000602082015250565b7f4552433732313a20746f6b656e20616c7265616479206d696e74656400000000600082015250565b7f4552433732313a207472616e7366657220746f20746865207a65726f2061646460008201527f7265737300000000000000000000000000000000000000000000000000000000602082015250565b7f4552433732313a20617070726f766520746f2063616c6c657200000000000000600082015250565b7f4552433732313a206f70657261746f7220717565727920666f72206e6f6e657860008201527f697374656e7420746f6b656e0000000000000000000000000000000000000000602082015250565b7f4552433732313a20617070726f76652063616c6c6572206973206e6f74206f7760008201527f6e6572206e6f7220617070726f76656420666f7220616c6c0000000000000000602082015250565b7f4552433732313a2062616c616e636520717565727920666f7220746865207a6560008201527f726f206164647265737300000000000000000000000000000000000000000000602082015250565b7f4552433732313a206f776e657220717565727920666f72206e6f6e657869737460008201527f656e7420746f6b656e0000000000000000000000000000000000000000000000602082015250565b7f45524337323155524953746f726167653a2055524920736574206f66206e6f6e60008201527f6578697374656e7420746f6b656e000000000000000000000000000000000000602082015250565b7f4552433732313a206d696e7420746f20746865207a65726f2061646472657373600082015250565b7f45524337323155524953746f726167653a2055524920717565727920666f722060008201527f6e6f6e6578697374656e7420746f6b656e000000000000000000000000000000602082015250565b7f4552433732313a20617070726f76656420717565727920666f72206e6f6e657860008201527f697374656e7420746f6b656e0000000000000000000000000000000000000000602082015250565b7f4552433732313a207472616e73666572206f6620746f6b656e2074686174206960008201527f73206e6f74206f776e0000000000000000000000000000000000000000000000602082015250565b7f4552433732314d657461646174613a2055524920717565727920666f72206e6f60008201527f6e6578697374656e7420746f6b656e0000000000000000000000000000000000602082015250565b7f4552433732313a20617070726f76616c20746f2063757272656e74206f776e6560008201527f7200000000000000000000000000000000000000000000000000000000000000602082015250565b7f4552433732313a207472616e736665722063616c6c6572206973206e6f74206f60008201527f776e6572206e6f7220617070726f766564000000000000000000000000000000602082015250565b612b9381612469565b8114612b9e57600080fd5b50565b612baa8161247b565b8114612bb557600080fd5b50565b612bc181612487565b8114612bcc57600080fd5b50565b612bd8816124d3565b8114612be357600080fd5b5056fea26469706673582212200174e3f78fa4d14f9511e2018dda9ddbdfebf4f7b5a186411ae4a984484e4b4f64736f6c63430008050033",
  "linkReferences": {},
  "deployedLinkReferences": {}
}